:03000000020006F5
:03005F0002000399
:0300030002006296
:200062007582E612049D900E1F75F08012051B900E1F75F08012051B900320E4F5F01200B8
:030082008580EC8A
:080E1F0053544152540D0A0026
:20008500AC82AD83AEF0FF43C40743C408EC4D4E4F602375C58375C6FF741055C4C4540F2F
:2000A500FBBB01F553C4EF1CBCFF091DBDFF051EBEFF011F80D753C4F72285825485835591
:2000C50085F056F557900005E4F5F0120560AC82AD83AEF0C313FFEE13FEED13FDEC13FC67
:2000E500EFC313FFEE13FEED13FDEC13FC0CBC00090DBD00050EBE00010F1CBCFF091DBD0A
:0E010500FF051EBEFF011FEC4D4E4F70ED2298
:20011300E493F58222E493FEA3E4938E82F58322AE82AF8353A87F75C7AA75C755439F014D
:2001330043A88053A87F75C7AA75C75543A50143A88075AF218FA78EA68554AE53A87F75D7
:20015300C7AA75C75543A40143A88053A87F75C7AA75C75553A5FE43A88053A87F75C7AA85
:2001730075C755539FFE43A88022AE82AF8353A87F75C7AA75C755439F0143A88075AEFF9B
:2001930075AF2253A87F75C7AA75C75543A50143A8808FA78EA653A87F75C7AA75C7554323
:2001B300A40143A88053A87F75C7AA75C75553A5FE43A88053A87F75C7AA75C755539FFEE9
:0401D30043A880229B
:2001D700900064E4F5F01200BF900045E02401F0E024F55004758201227582002243B30832
:2001F70043B40843B31043B41075BE2743C04022AF82900023E4F0900024F043C02053C08B
:20021700F7900045E4F0740855C0C423541FFE700FC0071201D7E582D00760EA758202226B
:20023700EF2FF5BC900045E4F053C0DF53C0F7740855C0C423541F700B1201D7E58260EF2D
:200257007582032275820022AF82900023E0FE04F0EE2425F582E43400F583EFF0900023CC
:20027700E0900024F022AD82AE83AFF07C00C3EC95085029EC2DF9E43EFA8F0389828A83A9
:200297008BF0120DE4F582C007C006C005C00412025FD004D005D006D0070C80D1227F0075
:2002B700900024E0FEC3EF9E5035EF2425F582E43400F583E0F5BC900045E4F053C0DF5302
:2002D700C0F7740855C0C423541FFE700FC0071201D7E582D00760EA758201220F80C14302
:2002F700C01053C0F7900045E4F0741055C0C4540FFFBF010B1201D7E58260EE758203221F
:2003170075820022AF82900002E509F0900001E4F043C02053C0F7900045E4F0740855C040
:20033700C423541FFE700FC0071201D7E582D00760EA75820222EF2FFF74014FF5BC53C0D6
:20035700DF53C0F7900045E4F0740855C0C423541F700B1201D7E58260EF758203227F0053
:20037700900002E0FE7D001EBEFF011D8F037C00C3EB9EEC64808DF063F08095F0503543B9
:20039700C00453C0F7900045E4F0740855C0C423541FFE700FC0071201D7E582D00760EA2E
:2003B70075820422EF2403F582E43400F583E5BCF00F80AC53C0FB53C0F7900045E4F074EB
:2003D7000855C0C423541F700B1201D7E58260EF75820522900002E0FF1FEF3395E0FEEF42
:2003F7002403F582EE3400F583E5BCF043C01053C0F7900045E4F0741055C0C4540FFFBFD9
:20041700010B1201D7E58260EE75820622758200227FFF900001E0FE900002E0FDC3EE9D38
:200437005012EE2403F582E43400F583E0FF900001EE04F08F8222900002E0FF7E00900023
:1004570001E0FD7C00EFC39DFFEE9C8F82F58322B8
:010E390000B8
:2004670043F40853F37F43F35353B3FE53B1FE43B10253B3FD43B40143B20143B20243B40D
:1604870002439002228582F500748055F423540160F753F47F2276
:20049D00AF8253B1BF53B2BF53B17F53B27F8F8D439840439810438920438780438E1053F4
:2004BD00C4DF4388405398FD22AF825398FD8F9974025598C31360F822AD82AE83AFF07CF8
:2004DD0000EC2DF9E43EFA8F0389828A838BF0120DE46029EC2DF9E43EFA8F030C89828ABF
:2004FD00838BF0120DE4F582C007C006C005C0041204C6D004D005D006D00780C4221204A3
:20051D00D6900E2775F0800204D6AC82AD83AEF0FFC004C005C006C007742AC0E0740EC0D1
:20053D00E07480C0E0740AC0E07400C0E07440C0E012067BE58124F6F58190000A75F040DC
:03055D000204D6BF
:070E27000D0A00256C6900B3
:06003500E478FFF6D8FD9F
:200013007901E94400601B7A01900E39784575A000E493F2A308B8000205A0D9F4DAF27506
:02003300A0FF2C
:20056000AAF0FBE5828554F0A4FCADF0E5838554F0A42DFDE435F0FEE5828555F0A42DFD74
:20058000E5F03EFEE433FFEA8554F0A42EFEE5F03FFFE5838555F0A42EFEE5F03FFFE58222
:2005A0008556F0A42EFEE5F03FFFEB8554F0A42FFFEA8555F0A42FFFE5838556F0A42FFF7C
:0E05C000E5828557F0A42F8EF08D838C822269
:20003B007800E84400600A790175A000E4F309D8FC7844E84400600C7901900001E4F0A37E
:04005B00D8FCD9FAFA
:2005CE00C025858125C082058105810581E52524FBF8A9250909E6F708E609F708E609F76F
:2005EE00A825080886820886830886F0120DE4FAA3120DE4FBA3120DE4FF74012AFCE43B7C
:20060E00FD8F06A825080886820886830886F0EC120E04A3ED120E04A3EE120E048A828BB6
:20062E00838FF0A82508E6120E04852581D0252285822285832385F02475332275340075B4
:20064E003540851E36851F378520388521399005CE120761AE82AF83AB22AC23AD248B82EE
:20066E008C838DF0E4120E048E828F8322C025E581F52524F8FF8F39E52524FBFF8F3375ED
:20068E003400753540E52524F8F886360886370886389005CE120761AE82AF83E52524FB61
:1A06AE00F886030886040886058B828C838DF0E4120E048E828F83D02522B2
:2006C800AF82C029C02AC02B1206D58007C027C0288F82221581158115810531E4B53102E9
:2006E800053222AF8274302FFF24C6500B74072FFFE52660034307208F820206C8E582FF89
:20070800C4540FF582C0071206EBD007740F5FF5820206EB858254AB2CAC2DAD2EAE2FAAD9
:20072800307556208A07EF2FF555EE2354014555FAEB2BFBEC33FCED33FDEE33FEC3EA95F9
:20074800544008EAC39554FA430301D556D68B2C8C2D8D2E8E2F8A30228582278583288576
:20076800332985342A85352BE4F531F532AD36AE37AF388D828E838FF0120DE4FC74012D2D
:20078800F536E43EF5378F38ECFF7003020DA8BF25028003020DA0E4F53AF53BF53CF53D3E
:2007A800F53EF53FF540F541F543F550F5517544FF7545FF85364A85374B85384C854A82C5
:2007C800854B83854CF0120DE4F54DA385824A85834B854A36854B37854C387425B54D08B9
:2007E800854D821206C8808574D0254D5068E54D24C6406274FFB54436B54533855054850F
:20080800515590000A120DC785824E85834FAA4D7E00EA254EFAEE354FFEEA24D0F550EEB1
:2008280034FFF551E55045517093753B01808E85445485455590000A120DC7AE82AB83AAE6
:200848004D7D00EA2EFEED3BFBEE24D0F544EB34FFF5450207C5742EB54D1574FFB5440522
:20086800B5450280030207C5E4F544F5450207C5749F254D500EE54D24854008534DDF7504
:20088800260180037526007420B54D0302092B742BB54D03020925742DB54D028079744214
:2008A800B54D030209317443B54D0302093D7444B54D03020AC17446B54D03020AD8744802
:2008C800B54D030207C57449B54D03020AC1744AB54D030207C5744CB54D028052744FB50F
:2008E8004D03020AC97450B54D03020A567453B54D0280627454B54D030207C57455B54D8D
:2009080003020ACE7458B54D03020AD3745AB54D030207C5020ADD753A010207C5753C0188
:200928000207C5753D010207C5753F010207C57540010207C5E53F600AE53914F989398757
:2009480006800BE53924FEFB8B398B0187068E821206C8020AEBE53924FDFE8E398E0187E5
:200968000209870309870619198A2C8B2D8E2E8A828B838EF0120DAF85824A85834B74FF6B
:20098800B54409B54506854A44854B45E53A7037C3E54A9550E54B9551502CE550C3954A1F
:2009A800F54EE551954BF54FAA4EAE4F154E74FFB54E02154FEA4E60087582201206C88047
:2009C800E7854E50854F51AB44AE45852C82852D83852EF0120DE4FA8A486034C3E49B74DA
:2009E800808EF063F08095F050261BBBFF011E854882C006C0031206C8D003D006AA2CAC4C
:200A08002DAD2E0ABA00010C8A2C8C2D8D2E80BBE53A7003020AEBC3E54A9550E54B95511A
:200A28004003020AEBE550C3954AF54EE551954BF54FAA4EAE4F154E74FFB54E02154FEAE2
:200A48004E7003020AE57582201206C880E4E53924FDFE8E398E0187020987030987061923
:200A6800198A2C8B2D8E2EAE2EBE800040047B438014BE600040047B50800BBE4000400481
:200A88007B4980027B588B82C0031206C875823A1206C87582301206C87582781206C8D04E
:200AA80003BB4902800BBB50028006852D82120705852C82120705802A753E0175430A80C4
:200AC80022754308801D75430A80187543108013754101800E854D821206C88006854E50B8
:200AE800854F51E5416060E53924FCFE8E398E0187500987510987520987531919198550B4
:200B08002C85512D85522E85532F752C2E752D0E752E80852C50852D51852E5274012550FD
:200B2800FAE43551FBAE528A2C8B2D8E2E8550828551838552F0120DE4FEFB7003020775C0
:200B48008B821206C880CCE5437003020775E53F602BE53914F9893987068E027B007D008A
:200B68007E008A2C8B2D8D2E8E2FE53E7064AA2CFBFDFE8A2C8B2D8D2E8E2F8055E5406006
:200B880021E53924FCFE8E398E0187020987030987050987061919198A2C8B2D8D2E8E2F22
:200BA8008030E53924FEFE8E398E01870309870619EEFA3395E0FDFE8B2C8A2D8D2E8E2F3F
:200BC800E53E700EAA2CAB2DFDFE8A2C8B2D8D2E8E2FE53E6023E52F30E71BC3E4952CFB8E
:200BE800E4952DFCE4952EFDE4952FFE8B2C8C2D8D2E8E2F8003753E00754201795D7D00D8
:200C08007E00753000854382C006C005C00112071CD001D005D006E5427014E530C454F09A
:200C2800FCE530C4540F4204E7FB4CF7198002A7300DBD00010EE542B40100E433F542E5AF
:200C48002C452D452E452F70B989498D468E47E55045517005755001F551E53B702DE53A3C
:200C68007029AA50AB51AC460C7E00C3EC9AEE9B5015758220C003C0021206C8D002D00309
:200C88001ABAFF011B80DF8A508B51E53E601175822D1206C8155074FFB550021551802EBD
:200CA800E54645476028E53C601175822B1206C8155074FFB5500215518013E53D600F757B
:200CC80082201206C8155074FFB550021551E53A7033AD50AE518D038E041DBDFF011EC3AA
:200CE800E5469BE5479C503EE53B60067B307C0080047B207C008B82C006C0051206C8D040
:200D080005D00680D1C3E5469550E5479551500FE550C39546F550E5519547F551800BE47C
:200D2800F550F55180048D508E51A949AD46AE478D028E041DBDFF011EEA4C6030E542B44C
:200D48000100E433F542700A09E7C4540FFC8C3080078704740F5CF530853082C006C0051B
:200D6800C0011206EBD001D005D00680C3E53A7003020775AD50AE518D038E041DBDFF01E0
:200D88001EEB4C7003020775758220C006C0051206C8D005D00680E08F821206C802077509
:070DA80085318285328322B0
:0B0E2E003C4E4F20464C4F41543E000C
:180DAF00AA82AB83120DE46003A380F8C3E5829AF582E5839BF5832279
:1D0DC700E5828554F0A4C582C0F08555F0A4D0F025F0C5838554F0A42583F583220A
:0D00060075815D120E00E5826003020003AB
:1C0DE40020F71430F6148883A88220F507E6A88375830022E280F7E49322E0221E
:040E000075820022D5
:1B0E040020F71130F6138883A88220F509F6A8837583002280FEF280F5F022ED
:00000001FF
