:03000000020006F5
:0300620002000396
:0300030002006593
:200065001202D875162575172D75180575191E751A03751B177582131202687582F7120524
:20008500C31200971201AB900258E4F5F012068680EF9010CBE493F5821202EB7582001210
:2000A500034C1203BA9010CBE493FF9010CCE493F51E8F82120430120555E582547FF582D2
:2000C50012012985820885830912055512012985820A85830B120555E582543FF582120103
:2000E5002985820C85830D12055512012985821085831112055512012985820E85830F12EC
:20010500055512012985821285831312055512012985821485831574D02514F514740735FA
:2001250015F51522AF827E007569108E6A8F828E83C007C00612107485826985836A90002D
:200145000A120728AC82AD83D006D00753070F7E00EF2CF582EE3DF58322AF827E00756979
:200165000A8E6A8F828E83C007C006121074AC82AD83D006D007EDC454F0CCC4CC6CCC544B
:20018500F0CC6CFD75690A756A008F828E83C005C00412103EAE82AF83D004D005EE2CF549
:2001A50082EF3DF58322AC0CE50DFD3395E0FE8C828D838EF012064D850A82850B8312026C
:2001C500298508828509831202299010CD75F0801205FCAC0EE50FFD3395E0FE8C828D83C0
:2001E5008EF012064D9010CD75F0801205FCAC12E513FD3395E0FE8C828D838EF012064D58
:200205009010CD75F0801205FCAC14E515FD3395E0FE8C828D838EF012064D9010CF75F042
:2002250080020641AE82AF839010D075F080C007C0061205FCD006D007C3EE940AEF6480CA
:20024500948050119010D275F080C007C0061205FCD006D007EF3395E0FD8E828F838DF04D
:2002650002064DAF829010CBE493F582C0071202EB75820012034C85178212015F12034C8B
:2002850085168212015F12034CD0078F8212015F12034C85188212015F12034C851982128A
:1A02A500015F12034C851A8212015F12034C851B8212015F12034C0203BAD6
:0910CB0068072000003A00300023
:03005F00751C000D
:2002BF00900064E4F5F01206C0051CE51C24F55004758201227582002243B30843B4084388
:2002DF00B31043B41075BE2743C04022AF827569009002BCC0071207187569009002BD12E2
:2002FF000718D00743C02053C0F7751C00740855C0C423541FFE700FC0071202BFE582D0F2
:20031F000760EA75820222EF2FF5BC751C0053C0DF53C0F7740855C0C423541F700B12027C
:20033F00BFE58260EF7582032275820022AF829002BCC007120714AE82D0077D0074C02E9B
:20035F00FE74023DFD8E828D838F691207189002BC12071C9002BC1207148582699002BDCA
:20037F00020718AD82AE83AFF07C00C3EC951D5029EC2DF9E43EFA8F0389828A838BF01283
:20039F001022F582C007C006C005C00412034CD004D005D006D0070C80D1227F009002BD7B
:2003BF00C007120714AE82D007C3EF9E50408F057E0074C02DFD74023EFE8D828E83C0073A
:2003DF001207148582BCD007751C0053C0DF53C0F7740855C0C423541FFE700FC007120267
:2003FF00BFE582D00760EA758201220F80AF43C01053C0F7751C00741055C0C4540FFFBF13
:20041F00010B1202BFE58260EE7582032275820022AF82851E699002BFC007120718756990
:20043F00009002BE120718D00743C02053C0F7751C00740855C0C423541FFE700FC0071246
:20045F0002BFE582D00760EA75820222EF2FFF74014FF5BC53C0DF53C0F7751C0074085529
:20047F00C0C423541F700B1202BFE58260EF758203227F009002BFC007120714AE82D00758
:20049F007D001EBEFF011D8F037C00C3EB9EEC64808DF063F08095F0503F43C00453C0F728
:2004BF00751C00740855C0C423541F700FC0071202BFE582D00760EB758204228F057E00D0
:2004DF0074E02DFD74023EFE8D828E8385BC69C007120718D0070F809B53C0FB53C0F7757D
:2004FF001C00740855C0C423541F700B1202BFE58260EF758205229002BF120714AF827E87
:20051F000074DF2FFF74023EFE8F828E8385BC6912071843C01053C0F7751C00741055C045
:20053F00C4540FFFBF010B1202BFE58260EE75820622758200227FFF9002BEC00712071429
:20055F00AE829002BFC006120714AD82D006D007C3EE9D50259002BE120714AE827D0074CB
:20057F00E02EFE74023DFD8E828D83120714AF829002BEC00712071CD0078F82229002BF7B
:20059F00120714AF827E009002BEC007C006120714AD82D006D0077C00EFC39DFFEE9C8F97
:0405BF0082F583221C
:2005C300AF8253B1BF53B2BF53B17F53B27F8F8D439840439810438920438780438E1053CD
:2005E300C4DF4388405398FD22AF825398FD8F9974025598C31360F822AD82AE83AFF07CD1
:2006030000EC2DF9E43EFA8F0389828A838BF01210226029EC2DF9E43EFA8F030C89828A56
:20062300838BF0121022F582C007C006C005C0041205ECD004D005D006D00780C422120512
:20064300FC9010D475F0800205FCAC82AD83AEF0FFC004C005C006C00774D7C0E07410C0FF
:20066300E07480C0E0741FC0E07400C0E07440C0E01208D6E58124F6F58190001F75F0402E
:030683000205FC71
:0710D4000D0A00256C690004
:20068600AC82AD83AEF0FF43C40743C408EC4D4E4F602375C58375C6FF741055C4C4540F28
:2006A600FBBB01F553C4EF1CBCFF091DBDFF051EBEFF011F80D753C4F72285826985836A60
:2006C60085F06BF56C900005E4F5F0120745AC82AD83AEF0C313FFEE13FEED13FDEC13FC4F
:2006E600EFC313FFEE13FEED13FDEC13FC0CBC00090DBD00050EBE00010F1CBCFF091DBD03
:20070600FF051EBEFF011FEC4D4E4F70ED22E0F58222E569F022E004F0F58222E014F0F560
:0207260082222D
:06003500E478FFF6D8FD9F
:200013007900E94400601B7A009010E6780175A000E493F2A308B8000205A0D9F4DAF2759D
:02003300A0FF2C
:1D072800E5828569F0A4C582C0F0856AF0A4D0F025F0C5838569F0A42583F5832270
:20074500AAF0FBE5828569F0A4FCADF0E5838569F0A42DFDE435F0FEE582856AF0A42DFD4E
:20076500E5F03EFEE433FFEA8569F0A42EFEE5F03FFFE583856AF0A42EFEE5F03FFFE58211
:20078500856BF0A42EFEE5F03FFFEB8569F0A42FFFEA856AF0A42FFFE583856BF0A42FFF41
:0E07A500E582856CF0A42F8EF08D838C82226D
:2007B300E569456A60467A01E56925E0F569E56A334012F56AE5829569E583956A40030A0B
:2007D30080E6C3E56A13F56AE56913F569C3E5829569F5F0E583956A4005F58385F082C372
:0D07F300E56A13F56AE56913F569DAE1229C
:20003B007800E84400600A790175A000E4F309D8FC7800E84400600C7900900001E4F0A3C3
:04005B00D8FCD9FAFA
:200800007A10E4FBFCE58225E0F582E58333F583EB33FBEC33FCEB9569F5F0EC956A40064A
:09082000FCABF0438201DADD2299
:20082900C03A85813AC082058105810581E53A24FBF8A93A0909E6F708E609F708E609F7BD
:20084900A83A080886820886830886F0121022FAA3121022FBA3121022FF74012AFCE43B46
:20086900FD8F06A83A080886820886830886F0EC1210B0A3ED1210B0A3EE1210B08A828B3A
:20088900838FF0A83A08E61210B0853A81D03A2285823785833885F03975483775490075EC
:2008A9004A4085334B85344C85354D85364E9008291209BCAE82AF83AB37AC38AD398B82DA
:2008C9008C838DF0E41210B08E828F8322C03AE581F53A24F8FF8F4EE53A24FBFF8F487579
:2008E9004900754A40E53A24F8F8864B08864C08864D9008291209BCAE82AF83E53A24FBB6
:1A090900F886030886040886058B828C838DF0E41210B08E828F83D03A2291
:20092300AF82C03EC03FC0401209308007C03CC03D8F82221581158115810546E4B546029A
:20094300054722AF8274302FFF24C6500B74072FFFE53B60034307208F82020923E582FFA3
:20096300C4540FF582C007120946D007740F5FF582020946858269AB41AC42AD43AE44AA57
:2009830045756B208A07EF2FF56AEE235401456AFAEB2BFBEC33FCED33FDEE33FEC3EA9548
:2009A300694008EAC39569FA430301D56BD68B418C428D438E448A452285823C85833D8547
:2009C300483E85493F854A40E4F546F547AD4BAE4CAF4D8D828E838FF0121022FC74012DA8
:2009E300F54BE43EF54C8F4DECFF7003021003BF25028003020FFBE4F54FF550F551F55293
:200A0300F553F554F555F556F558F565F5667559FF755AFF854B5F854C60854D61855F8217
:200A23008560838561F0121022F562A385825F858360855F4B85604C85614D7425B562081E
:200A4300856282120923808574D025625068E56224C6406274FFB55936B55A3385656985C0
:200A6300666A90000A120728858263858364AA627E00EA2563FAEE3564FEEA24D0F565EE51
:200A830034FFF566E56545667093755001808E855969855A6A90000A120728AE82AB83AA86
:200AA300627D00EA2EFEED3BFBEE24D0F559EB34FFF55A020A20742EB5621574FFB55905FE
:200AC300B55A028003020A20E4F559F55A020A20749F2562500EE562248540085362DF756D
:200AE3003B018003753B007420B56203020B86742BB56203020B80742DB562028079744294
:200B0300B56203020B8C7443B56203020B987444B56203020D1C7446B56203020D337448DA
:200B2300B56203020A207449B56203020D1C744AB56203020A20744CB562028052744FB543
:200B43006203020D247450B56203020CB17453B5620280627454B56203020A207455B562AD
:200B630003020D297458B56203020D2E745AB56203020A20020D38754F01020A2075510101
:200B8300020A20755201020A20755401020A20755501020A20E554600AE54E14F9894E8704
:200BA30006800BE54E24FEFB8B4E8B0187068E82120923020D46E54E24FDFE8E4E8E018778
:200BC3000209870309870619198A418B428E438A828B838EF012100A85825F85836074FF47
:200BE300B55909B55A06855F5985605AE54F7037C3E55F9565E5609566502CE565C3955FB1
:200C0300F563E5669560F564AA63AE64156374FFB563021564EA4E600875822012092380CE
:200C2300E7856365856466AB59AE5A8541828542838543F0121022FA8A5D6034C3E49B7469
:200C4300808EF063F08095F050261BBBFF011E855D82C006C003120923D003D006AA41AC66
:200C630042AD430ABA00010C8A418C428D4380BBE54F7003020D46C3E55F9565E56095668D
:200C83004003020D46E565C3955FF563E5669560F564AA63AE64156374FFB563021564EA40
:200CA3004E7003020D4075822012092380E4E54E24FDFE8E4E8E01870209870309870619E0
:200CC300198A418B428E43AE43BE800040047B438014BE600040047B50800BBE40004004D0
:200CE3007B4980027B588B82C00312092375823A120923758230120923758278120923D079
:200D030003BB4902800BBB50028006854282120960854182120960802A75530175580A8058
:200D230022755808801D75580A80187558108013755601800E856282120923800685636569
:200D4300856466E5566060E54E24FCFE8E4E8E018765098766098767098768191919856584
:200D6300418566428567438568447541DB754210754380854165854266854367740125658C
:200D8300FAE43566FBAE678A418B428E438565828566838567F0121022FEFB70030209D01D
:200DA3008B8212092380CCE55870030209D0E554602BE54E14F9894E87068E027B007D001E
:200DC3007E008A418B428D438E44E5537064AA41FBFDFE8A418B428D438E448055E55560C2
:200DE30021E54E24FCFE8E4E8E0187020987030987050987061919198A418B428D438E4447
:200E03008030E54E24FEFE8E4E8E01870309870619EEFA3395E0FDFE8B418A428D438E4463
:200E2300E553700EAA41AB42FDFE8A418B428D438E44E5536023E54430E71BC3E49541FB5E
:200E4300E49542FCE49543FDE49544FE8B418C428D438E44800375530075570179727D00A8
:200E63007E00754500855882C006C005C001120977D001D005D006E5577014E545C454F08C
:200E8300FCE545C4540F4204E7FB4CF7198002A7450DBD00010EE557B40100E433F557E5FE
:200EA3004145424543454470B9895E8D5B8E5CE56545667005756501F566E550702DE54FCE
:200EC3007029AA65AB66AC5B0C7E00C3EC9AEE9B5015758220C003C002120923D002D0030F
:200EE3001ABAFF011B80DF8A658B66E553601175822D120923156574FFB565021566802E84
:200F0300E55B455C6028E551601175822B120923156574FFB5650215668013E552600F752C
:200F23008220120923156574FFB565021566E54F7033AD65AE668D038E041DBDFF011EC370
:200F4300E55B9BE55C9C503EE55060067B307C0080047B207C008B82C006C005120923D045
:200F630005D00680D1C3E55B9565E55C9566500FE565C3955BF565E566955CF566800BE44D
:200F8300F565F56680048D658E66A95EAD5BAE5C8D028E041DBDFF011EEA4C6030E557B447
:200FA3000100E433F557700A09E7C4540FFC8C4580078704740F5CF545854582C006C0056A
:200FC300C001120946D001D005D00680C3E54F70030209D0AD65AE668D038E041DBDFF0189
:200FE3001EEB4C70030209D0758220C006C005120923D005D00680E08F821209230209D036
:071003008546828547832228
:0B10DB003C4E4F20464C4F41543E005D
:18100A00AA82AB831210226003A380F8C3E5829AF582E5839BF58322DA
:0D0006007581721210ACE5826003020003E8
:1C10220020F71430F6148883A88220F507E6A88375830022E280F7E49322E022DD
:20103E00C2D5E58330E70DD2D5E4C39582F582E49583F583E56A30E70BE4C39569F569E4C7
:16105E00956AF56A1207B330D50BE4C39582F582E49583F5832277
:20107400C2D5E58330E70DD2D5E4C39582F582E49583F583E56A30E70DB2D5E4C39569F555
:1810940069E4956AF56A12080030D50BE4C39582F582E49583F58322A4
:0410AC007582002227
:1B10B00020F71130F6138883A88220F509F6A8837583002280FEF280F5F0223F
:00000001FF
