:03000000020006F5
:03005F0002000399
:0300030002006296
:2000620012042B75162575172D75180575191E751A03751B177582131202657582F71206D4
:20008200D41200941201A8900258E4F5F01202BC80EF90113AE493F58212043E7582001211
:2000A20004961204EC90113AE493FF90113BE493F51D8F8212055212065FE582547FF5824A
:2000C20012012685820885830912065F12012685820A85830B12065FE582543FF5821201F6
:2000E2002685820C85830D12065F12012685821085831112065F12012685820E85830F12E2
:20010200065F12012685821285831312065F12012685821485831574D02514F514740735ED
:2001220015F51522AF827E007568108E698F828E83C007C0061210E38582688583699000C5
:200142000A120797AC82AD83D006D00753070F7E00EF2CF582EE3DF58322AF827E0075680E
:200162000A8E698F828E83C007C0061210E3AC82AD83D006D007EDC454F0CCC4CC6CCC54E0
:20018200F0CC6CFD75680A7569008F828E83C005C0041210ADAE82AF83D004D005EE2CF5DF
:2001A20082EF3DF58322AC0CE50DFD3395E0FE8C828D838EF012075E850A82850B8312025D
:2001C2002685088285098312022690113C75F08012070DAC0EE50FFD3395E0FE8C828D8346
:2001E2008EF012075E90113C75F08012070DAC12E513FD3395E0FE8C828D838EF012075EB4
:2002020090113C75F08012070DAC14E515FD3395E0FE8C828D838EF012075E90113E75F040
:2002220080020752AE82AF8390113F75F080C007C00612070DD006D007C3EE940AEF648038
:200242009480501190114175F080C007C00612070DD006D007EF3395E0FD8E828F838DF0CD
:2002620002075EAF8290113AE493F582C00712043E75820012049685178212015C12049624
:2002820085168212015C120496D0078F8212015C12049685188212015C12049685198212B5
:1A02A200015C120496851A8212015C120496851B8212015C1204960204ECCE
:09113A0068072000003A003000B3
:2002BC00AC82AD83AEF0FF43C40743C408EC4D4E4F602375C58375C6FF741055C4C4540FF6
:2002DC00FBBB01F553C4EF1CBCFF091DBDFF051EBEFF011F80D753C4F72285826885836930
:2002FC0085F06AF56B900005E4F5F01207B4AC82AD83AEF0C313FFEE13FEED13FDEC13FCB0
:20031C00EFC313FFEE13FEED13FDEC13FC0CBC00090DBD00050EBE00010F1CBCFF091DBDD0
:0E033C00FF051EBEFF011FEC4D4E4F70ED225F
:20034A00E493F58222E493FEA3E4938E82F58322AE82AF8353A87F75C7AA75C755439F0114
:20036A0043A88053A87F75C7AA75C75543A50143A88075AF218FA78EA68568AE53A87F758A
:20038A00C7AA75C75543A40143A88053A87F75C7AA75C75553A5FE43A88053A87F75C7AA4C
:2003AA0075C755539FFE43A88022AE82AF8353A87F75C7AA75C755439F0143A88075AEFF62
:2003CA0075AF2253A87F75C7AA75C75543A50143A8808FA78EA653A87F75C7AA75C75543EA
:2003EA00A40143A88053A87F75C7AA75C75553A5FE43A88053A87F75C7AA75C755539FFEB0
:04040A0043A8802261
:20040E00900064E4F5F01202F6900045E02401F0E024F55004758201227582002243B308BF
:20042E0043B40843B31043B41075BE2743C04022AF82900023E4F0900024F043C02053C051
:20044E00F7900045E4F0740855C0C423541FFE700FC00712040EE582D00760EA75820222F8
:20046E00EF2FF5BC900045E4F053C0DF53C0F7740855C0C423541F700B12040EE58260EFBA
:20048E007582032275820022AF82900023E0FE04F0EE2425F582E43400F583EFF090002393
:2004AE00E0900024F022AD82AE83AFF07C00C3EC951C5029EC2DF9E43EFA8F0389828A835C
:2004CE008BF0121091F582C007C006C005C004120496D004D005D006D0070C80D1227F0053
:2004EE00900024E0FEC3EF9E5035EF2425F582E43400F583E0F5BC900045E4F053C0DF53C9
:20050E00C0F7740855C0C423541FFE700FC00712040EE582D00760EA758201220F80C1438E
:20052E00C01053C0F7900045E4F0741055C0C4540FFFBF010B12040EE58260EE75820322AB
:20054E0075820022AF82900002E51DF0900001E4F043C02053C0F7900045E4F0740855C0F3
:20056E00C423541FFE700FC00712040EE582D00760EA75820222EF2FFF74014FF5BC53C063
:20058E00DF53C0F7900045E4F0740855C0C423541F700B12040EE58260EF758203227F00E0
:2005AE00900002E0FE7D001EBEFF011D8F037C00C3EB9EEC64808DF063F08095F050354380
:2005CE00C00453C0F7900045E4F0740855C0C423541FFE700FC00712040EE582D00760EABB
:2005EE0075820422EF2403F582E43400F583E5BCF00F80AC53C0FB53C0F7900045E4F074B2
:20060E000855C0C423541F700B12040EE58260EF75820522900002E0FF1FEF3395E0FEEFCE
:20062E002403F582EE3400F583E5BCF043C01053C0F7900045E4F0741055C0C4540FFFBF9F
:20064E00010B12040EE58260EE75820622758200227FFF900001E0FE900002E0FDC3EE9DC5
:20066E005012EE2403F582E43400F583E0FF900001EE04F08F8222900002E0FF7E009000EA
:10068E0001E0FD7C00EFC39DFFEE9C8F82F583227F
:011155000099
:20069E0043F40853F37F43F35353B3FE53B1FE43B10253B3FD43B40143B20143B20243B4D4
:1606BE0002439002228582F500748055F423540160F753F47F223D
:2006D400AF8253B1BF53B2BF53B17F53B27F8F8D439840439810438920438780438E1053BB
:2006F400C4DF4388405398FD22AF825398FD8F9974025598C31360F822AD82AE83AFF07CBF
:2007140000EC2DF9E43EFA8F0389828A838BF01210916029EC2DF9E43EFA8F030C89828AD5
:20073400838BF0121091F582C007C006C005C0041206FDD004D005D006D00780C42212077D
:200754000D90114375F08002070DAC82AD83AEF0FFC004C005C006C0077446C0E07411C0E9
:20077400E07480C0E0741EC0E07400C0E07440C0E0120945E58124F6F58190001E75F040AE
:0307940002070D4C
:071143000D0A00256C690094
:06003500E478FFF6D8FD9F
:200013007901E94400601B7A01901155784575A000E493F2A308B8000205A0D9F4DAF275E7
:02003300A0FF2C
:1D079700E5828568F0A4C582C0F08569F0A4D0F025F0C5838568F0A42583F5832204
:2007B400AAF0FBE5828568F0A4FCADF0E5838568F0A42DFDE435F0FEE5828569F0A42DFDE2
:2007D400E5F03EFEE433FFEA8568F0A42EFEE5F03FFFE5838569F0A42EFEE5F03FFFE582A4
:2007F400856AF0A42EFEE5F03FFFEB8568F0A42FFFEA8569F0A42FFFE583856AF0A42FFFD6
:0E081400E582856BF0A42F8EF08D838C8222FE
:20082200E568456960467A01E56825E0F568E569334012F569E5829568E583956940030AA3
:2008420080E6C3E56913F569E56813F568C3E5829568F5F0E58395694005F58385F082C308
:0D086200E56913F569E56813F568DAE12230
:20003B007800E84400600A790175A000E4F309D8FC7844E84400600C7901900001E4F0A37E
:04005B00D8FCD9FAFA
:20086F007A10E4FBFCE58225E0F582E58333F583EB33FBEC33FCEB9568F5F0EC95694006DD
:09088F00FCABF0438201DADD222A
:20089800C039858139C082058105810581E53924FBF8A9390909E6F708E609F708E609F752
:2008B800A839080886820886830886F0121091FAA3121091FBA3121091FF74012AFCE43B8B
:2008D800FD8F06A839080886820886830886F0EC12111FA3ED12111FA3EE12111F8A828B7C
:2008F800838FF0A83908E612111F853981D0392285823685833785F0387547367548007516
:20091800494085324A85334B85344C85354D900898120A2BAE82AF83AB36AC37AD388B8297
:200938008C838DF0E412111F8E828F8322C039E581F53924F8FF8F4DE53924FBFF8F47759E
:200958004800754940E53924F8F8864A08864B08864C900898120A2BAE82AF83E53924FB6E
:1A097800F886030886040886058B828C838DF0E412111F8E828F83D03922B3
:20099200AF82C03DC03EC03F12099F8007C03BC03C8F82221581158115810545E4B54502C3
:2009B200054622AF8274302FFF24C6500B74072FFFE53A60034307208F82020992E582FFC7
:2009D200C4540FF582C0071209B5D007740F5FF5820209B5858268AB40AC41AD42AE43AA0F
:2009F20044756A208A07EF2FF569EE2354014569FAEB2BFBEC33FCED33FDEE33FEC3EA95DD
:200A1200684008EAC39568FA430301D56AD68B408C418D428E438A442285823B85833C85E1
:200A3200473D85483E85493FE4F545F546AD4AAE4BAF4C8D828E838FF0121091FC74012DD4
:200A5200F54AE43EF54B8F4CECFF7003021072BF2502800302106AE4F54EF54FF550F5514B
:200A7200F552F553F554F555F557F564F5657558FF7559FF854A5E854B5F854C60855E82B8
:200A9200855F838560F0121091F561A385825E85835F855E4A855F4B85604C7425B561084C
:200AB200856182120992808574D025615068E56124C6406274FFB55836B5593385646885E9
:200AD200656990000A120797858262858363AA617E00EA2562FAEE3563FEEA24D0F564EE7B
:200AF20034FFF565E56445657093754F01808E85586885596990000A120797AE82AB83AAB0
:200B1200617D00EA2EFEED3BFBEE24D0F558EB34FFF559020A8F742EB5611574FFB5580524
:200B3200B559028003020A8FE4F558F559020A8F749F2561500EE561248540085361DF7525
:200B52003A018003753A007420B56103020BF5742BB56103020BEF742DB56102807974424B
:200B7200B56103020BFB7443B56103020C077444B56103020D8B7446B56103020DA27448B2
:200B9200B56103020A8F7449B56103020D8B744AB56103020A8F744CB561028052744FB58B
:200BB2006103020D937450B56103020D207453B5610280627454B56103020A8F7455B561F5
:200BD20003020D987458B56103020D9D745AB56103020A8F020DA7754E01020A8F7550016B
:200BF200020A8F755101020A8F755301020A8F755401020A8FE553600AE54D14F9894D87DF
:200C120006800BE54D24FEFB8B4D8B0187068E82120992020DB5E54D24FDFE8E4D8E01872E
:200C32000209870309870619198A408B418E428A828B838EF012107985825E85835F74FF6D
:200C5200B55809B55906855E58855F59E54E7037C3E55E9564E55F9565502CE564C3955E4E
:200C7200F562E565955FF563AA62AE63156274FFB562021563EA4E600875822012099280F9
:200C9200E7856264856365AB58AE598540828541838542F0121091FA8A5C6034C3E49B7495
:200CB200808EF063F08095F050261BBBFF011E855C82C006C003120992D003D006AA40AC8A
:200CD20041AD420ABA00010C8A408C418D4280BBE54E7003020DB5C3E55E9564E55F9565B9
:200CF2004003020DB5E564C3955EF562E565955FF563AA62AE63156274FFB562021563EA6D
:200D12004E7003020DAF75822012099280E4E54D24FDFE8E4D8E0187020987030987061994
:200D3200198A408B418E42AE42BE800040047B438014BE600040047B50800BBE4000400464
:200D52007B4980027B588B82C00312099275823A120992758230120992758278120992D04D
:200D720003BB4902800BBB500280068541821209CF8540821209CF802A75520175570A800F
:200D920022755708801D75570A80187557108013755501800E856182120992800685626492
:200DB200856365E5556060E54D24FCFE8E4D8E01876409876509876609876719191985641F
:200DD2004085654185664285674375404A75411175428085406485416585426674012564BE
:200DF200FAE43565FBAE668A408B418E428564828565838566F0121091FEFB7003020A3FD7
:200E12008B8212099280CCE5577003020A3FE553602BE54D14F9894D87068E027B007D00D3
:200E32007E008A408B418D428E43E5527064AA40FBFDFE8A408B418D428E438055E554605D
:200E520021E54D24FCFE8E4D8E0187020987030987050987061919198A408B418D428E43DD
:200E72008030E54D24FEFE8E4D8E01870309870619EEFA3395E0FDFE8B408A418D428E43FA
:200E9200E552700EAA40AB41FDFE8A408B418D428E43E5526023E54330E71BC3E49540FBF9
:200EB200E49541FCE49542FDE49543FE8B408C418D428E43800375520075560179717D0043
:200ED2007E00754400855782C006C005C0011209E6D001D005D006E5567014E544C454F0B2
:200EF200FCE544C4540F4204E7FB4CF7198002A7440DBD00010EE556B40100E433F556E593
:200F12004045414542454370B9895D8D5A8E5BE56445657005756401F565E54F702DE54E6B
:200F32007029AA64AB65AC5A0C7E00C3EC9AEE9B5015758220C003C002120992D002D00333
:200F52001ABAFF011B80DF8A648B65E552601175822D120992156474FFB564021565802EAB
:200F7200E55A455B6028E550601175822B120992156474FFB5640215658013E551600F7555
:200F92008220120992156474FFB564021565E54E7033AD64AE658D038E041DBDFF011EC398
:200FB200E55A9BE55B9C503EE54F60067B307C0080047B207C008B82C006C005120992D06A
:200FD20005D00680D1C3E55A9564E55B9565500FE564C3955AF564E565955BF565800BE4E8
:200FF200F564F56580048D648E65A95DAD5AAE5B8D028E041DBDFF011EEA4C6030E556B4E0
:201012000100E433F556700A09E7C4540FFC8C4480078704740F5CF544854482C006C005FE
:20103200C0011209B5D001D005D00680C3E54E7003020A3FAD64AE658D038E041DBDFF013D
:201052001EEB4C7003020A3F758220C006C005120992D005D00680E08F82120992020A3F08
:0710720085458285468322BB
:0B114A003C4E4F20464C4F41543E00ED
:18107900AA82AB831210916003A380F8C3E5829AF582E5839BF58322FC
:0D00060075817112111BE582600302000379
:1C10910020F71430F6148883A88220F507E6A88375830022E280F7E49322E0226E
:2010AD00C2D5E58330E70DD2D5E4C39582F582E49583F583E56930E70BE4C39568F568E45B
:1610CD009569F56912082230D50BE4C39582F582E49583F583229A
:2010E300C2D5E58330E70DD2D5E4C39582F582E49583F583E56930E70DB2D5E4C39568F5E8
:1811030068E49569F56912086F30D50BE4C39582F582E49583F58322C8
:04111B0075820022B7
:1B111F0020F71130F6138883A88220F509F6A8837583002280FEF280F5F022CF
:00000001FF
