:03000000020006F5
:03005F0002000399
:0300030002011BDC
:20006200758200120562750A0B750B077582031200A4750A09750BFF7582031200A4750A17
:200082000C750B017582031200A4750A0F750B007582031200A4750A0A750B01758203025D
:2000A20000A4AF825390FD8F061FEE6012850A82C00712058C850B8212058CD00780E843C3
:2000C200900222AF82740F5FFEEFC4540FFF5390FD1EC3EE9F4016758200C007C006120505
:2000E2008C75820012058CD006D00780E4850C82C00712058C850D8212058CD0071FBF01DD
:20010200004012758200C00712058C75820012058CD00780E843900222120062750C0175EF
:200122000D057582131200C5750C02750D097582131200C5750C03750D097582131200C5EB
:20014200750C04750D017582131200C5750C05750DF37582131200C5750C06750D007582D8
:1E016200131200C5750C07750DF37582131200C5750C08750D017582131200C5809EAC
:20018000AC82AD83AEF0FF43C40743C408EC4D4E4F602375C58375C6FF741055C4C4540F33
:2001A000FBBB01F553C4EF1CBCFF091DBDFF051EBEFF011F80D753C4F72285825A85835B89
:2001C00085F05CF55D900005E4F5F012068BAC82AD83AEF0C313FFEE13FEED13FDEC13FC33
:2001E000EFC313FFEE13FEED13FDEC13FC0CBC00090DBD00050EBE00010F1CBCFF091DBD0E
:0E020000FF051EBEFF011FEC4D4E4F70ED229C
:20020E00E493F58222E493FEA3E4938E82F58322AE82AF8353A87F75C7AA75C755439F0151
:20022E0043A88053A87F75C7AA75C75543A50143A88075AF218FA78EA6855AAE53A87F75D5
:20024E00C7AA75C75543A40143A88053A87F75C7AA75C75553A5FE43A88053A87F75C7AA89
:20026E0075C755539FFE43A88022AE82AF8353A87F75C7AA75C755439F0143A88075AEFF9F
:20028E0075AF2253A87F75C7AA75C75543A50143A8808FA78EA653A87F75C7AA75C7554327
:2002AE00A40143A88053A87F75C7AA75C75553A5FE43A88053A87F75C7AA75C755539FFEED
:0402CE0043A880229F
:2002D200900064E4F5F01201BA900045E02401F0E024F55004758201227582002243B3083A
:2002F20043B40843B31043B41075BE2743C04022AF82900023E4F0900024F043C02053C08F
:20031200F7900045E4F0740855C0C423541FFE700FC0071202D2E582D00760EA7582022273
:20033200EF2FF5BC900045E4F053C0DF53C0F7740855C0C423541F700B1202D2E58260EF35
:200352007582032275820022AF82900023E0FE04F0EE2425F582E43400F583EFF0900023D0
:20037200E0900024F022AD82AE83AFF07C00C3EC950E5029EC2DF9E43EFA8F0389828A83A7
:200392008BF0120F0FF582C007C006C005C00412035AD004D005D006D0070C80D1227F0050
:2003B200900024E0FEC3EF9E5035EF2425F582E43400F583E0F5BC900045E4F053C0DF5306
:2003D200C0F7740855C0C423541FFE700FC0071202D2E582D00760EA758201220F80C1430A
:2003F200C01043C008900045E4F0741055C0C4540FFFBF010B1202D2E58260EE7582032226
:2004120075820022AF82900002E50FF0900001E4F043C02053C0F7900045E4F0740855C03E
:20043200C423541FFE700FC0071202D2E582D00760EA75820222EF2FFF74014FF5BC53C0DE
:20045200DF53C0F7900045E4F0740855C0C423541F700B1202D2E58260EF758203227F005B
:20047200900002E0FE7D001EBEFF011D8F037C00C3EB9EEC64808DF063F08095F0503543BD
:20049200C00453C0F7900045E4F0740855C0C423541FFE700FC0071202D2E582D00760EA36
:2004B20075820422EF2403F582E43400F583E5BCF00F80AC53C0FB53C0F7900045E4F074EF
:2004D2000855C0C423541F700B1202D2E58260EF75820522900002E0FF1FEF3395E0FEEF4A
:2004F2002403F582EE3400F583E5BCF043C01053C0F7900045E4F0741055C0C4540FFFBFDD
:20051200010B1202D2E58260EE75820622758200227FFF900001E0FE900002E0FDC3EE9D40
:200532005012EE2403F582E43400F583E0FF900001EE04F08F8222900002E0FF7E00900027
:1005520001E0FD7C00EFC39DFFEE9C8F82F58322BC
:010F5C000094
:20056200AF8243F40853F37FEF701E43F35043900253B3FE53B1FE43B10253B3FD43B40175
:2005820043B20143B20243B40222AF828FF500748055F4235401FE7004AFF580F253F47F99
:2005A2008F8222E582700443F3202253F3DF22AF8274F355F34FF5F322AF8274FC55F3FE4C
:0905C20074035F4EF5F3222222BE
:2005CB00AF8253B1BF53B2BF53B17F53B27F8F8D759850438920438780438E1053C4DF4388
:2005EB00884043980222AF825398FD8F9974025598C31360F822AD82AE83AFF07C00EC2DA1
:20060B00F9E43EFA8F0389828A838BF0120F0F6029EC2DF9E43EFA8F030C89828A838BF07D
:20062B00120F0FF582C007C006C005C0041205F1D004D005D006D00780C422120601900F76
:20064B004A75F080020601AC82AD83AEF0FFC004C005C006C007744DC0E0740FC0E07480CE
:20066B00C0E07410C0E07400C0E07440C0E01207A6E58124F6F58190001075F04002060140
:070F4A000D0A00256C69008F
:06003500E478FFF6D8FD9F
:200013007901E94400601B7A01900F5C784575A000E493F2A308B8000205A0D9F4DAF275E2
:02003300A0FF2C
:20068B00AAF0FBE582855AF0A4FCADF0E583855AF0A42DFDE435F0FEE582855BF0A42DFD36
:2006AB00E5F03EFEE433FFEA855AF0A42EFEE5F03FFFE583855BF0A42EFEE5F03FFFE582EA
:2006CB00855CF0A42EFEE5F03FFFEB855AF0A42FFFEA855BF0A42FFFE583855CF0A42FFF38
:0E06EB00E582855DF0A42F8EF08D838C822237
:20003B007800E84400600A790175A000E4F309D8FC7844E84400600C7901900001E4F0A37E
:04005B00D8FCD9FAFA
:2006F900C02B85812BC082058105810581E52B24FBF8A92B0909E6F708E609F708E609F72B
:20071900A82B080886820886830886F0120F0FFAA3120F0FFBA3120F0FFF74012AFCE43BC2
:20073900FD8F06A82B080886820886830886F0EC120F2FA3ED120F2FA3EE120F2F8A828B00
:20075900838FF0A82B08E6120F2F852B81D02B2285822885832985F02A753928753A007526
:200779003B4085243C85253D85263E85273F9006F912088CAE82AF83AB28AC29AD2A8B8222
:200799008C838DF0E4120F2F8E828F8322C02BE581F52B24F8FF8F3FE52B24FBFF8F397577
:2007B9003A00753B40E52B24F8F8863C08863D08863E9006F912088CAE82AF83E52B24FBB3
:1A07D900F886030886040886058B828C838DF0E4120F2F8E828F83D02B2254
:2007F300AF82C02FC030C0311208008007C02DC02E8F82221581158115810537E4B5370266
:20081300053822AF8274302FFF24C6500B74072FFFE52C60034307208F820207F3E582FF24
:20083300C4540FF582C007120816D007740F5FF58202081685825AAB32AC33AD34AE35AA35
:2008530036755C208A07EF2FF55BEE235401455BFAEB2BFBEC33FCED33FDEE33FEC3EA95B5
:200873005A4008EAC3955AFA430301D55CD68B328C338D348E358A362285822D85832E850E
:20089300392F853A30853B31E4F537F538AD3CAE3DAF3E8D828E838FF0120F0FFC74012D92
:2008B300F53CE43EF53D8F3EECFF7003020ED3BF25028003020ECBE4F540F541F542F54390
:2008D300F544F545F546F547F549F556F557754AFF754BFF853C50853D51853E5285508239
:2008F3008551838552F0120F0FF553A385825085835185503C85513D85523E7425B5530818
:200913008553821207F3808574D025535068E55324C6406274FFB54A36B54B3385565A858C
:20093300575B90000A120EF2858254858355AA537E00EA2554FAEE3555FEEA24D0F556EE29
:2009530034FFF557E55645577093754101808E854A5A854B5B90000A120EF2AE82AB83AA5E
:20097300537D00EA2EFEED3BFBEE24D0F54AEB34FFF54B0208F0742EB5531574FFB54A05AC
:20099300B54B0280030208F0E4F54AF54B0208F0749F2553500EE553248540085353DF755C
:2009B3002C018003752C007420B55303020A56742BB55303020A50742DB553028079744272
:2009D300B55303020A5C7443B55303020A687444B55303020BEC7446B55303020C0374480D
:2009F300B553030208F07449B55303020BEC744AB553030208F0744CB553028052744FB547
:200A13005303020BF47450B55303020B817453B5530280627454B553030208F07455B553BE
:200A330003020BF97458B55303020BFE745AB553030208F0020C087540010208F075420167
:200A53000208F07543010208F07545010208F07546010208F0E545600AE53F14F9893F8757
:200A730006800BE53F24FEFB8B3F8B0187068E821207F3020C16E53F24FDFE8E3F8E018748
:200A93000209870309870619198A328B338E348A828B838EF0120EDA85825085835174FFF5
:200AB300B54A09B54B0685504A85514BE5407037C3E5509556E5519557502CE556C39550A5
:200AD300F554E5579551F555AA54AE55155474FFB554021555EA4E60087582201207F380B9
:200AF300E7855456855557AB4AAE4B8532828533838534F0120F0FFA8A4E6034C3E49B7445
:200B1300808EF063F08095F050261BBBFF011E854E82C006C0031207F3D003D006AA32ACE7
:200B330033AD340ABA00010C8A328C338D3480BBE5407003020C16C3E5509556E551955785
:200B53004003020C16E556C39550F554E5579551F555AA54AE55155474FFB554021555EA47
:200B73004E7003020C107582201207F380E4E53F24FDFE8E3F8E0187020987030987061992
:200B9300198A328B338E34AE34BE800040047B438014BE600040047B50800BBE400040043D
:200BB3007B4980027B588B82C0031207F375823A1207F37582301207F37582781207F3D072
:200BD30003BB4902800BBB50028006853382120830853282120830802A75440175490A8028
:200BF30022754908801D75490A80187549108013754701800E8553821207F3800685545636
:200C1300855557E5476060E53F24FCFE8E3F8E01875609875709875809875919191985564B
:200C33003285573385583485593575325175330F7534808532568533578534587401255647
:200C5300FAE43557FBAE588A328B338E348556828557838558F0120F0FFEFB70030208A00B
:200C73008B821207F380CCE54970030208A0E545602BE53F14F9893F87068E027B007D00EE
:200C93007E008A328B338D348E35E5447064AA32FBFDFE8A328B338D348E358055E5466098
:200CB30021E53F24FCFE8E3F8E0187020987030987050987061919198A328B338D348E35D2
:200CD3008030E53F24FEFE8E3F8E01870309870619EEFA3395E0FDFE8B328A338D348E35EF
:200CF300E544700EAA32AB33FDFE8A328B338D348E35E5446023E53530E71BC3E49532FB26
:200D1300E49533FCE49534FDE49535FE8B328C338D348E35800375440075480179637D006F
:200D33007E00753600854982C006C005C001120847D001D005D006E5487014E536C454F02A
:200D5300FCE536C4540F4204E7FB4CF7198002A7360DBD00010EE548B40100E433F548E56B
:200D73003245334534453570B9894F8D4C8E4DE55645577005755601F557E541702DE540C2
:200D93007029AA56AB57AC4C0C7E00C3EC9AEE9B5015758220C003C0021207F3D002D0039F
:200DB3001ABAFF011B80DF8A568B57E544601175822D1207F3155674FFB556021557802E41
:200DD300E54C454D6028E542601175822B1207F3155674FFB5560215578013E543600F75F9
:200DF30082201207F3155674FFB556021557E5407033AD56AE578D038E041DBDFF011EC32E
:200E1300E54C9BE54D9C503EE54160067B307C0080047B207C008B82C006C0051207F3D0D5
:200E330005D00680D1C3E54C9556E54D9557500FE556C3954CF556E557954DF557800BE414
:200E5300F556F55780048D568E57A94FAD4CAE4D8D028E041DBDFF011EEA4C6030E548B4F0
:200E73000100E433F548700A09E7C4540FFC8C3680078704740F5CF536853682C006C005D7
:200E9300C001120816D001D005D00680C3E54070030208A0AD56AE578D038E041DBDFF0149
:200EB3001EEB4C70030208A0758220C006C0051207F3D005D00680E08F821207F30208A02D
:070ED3008537828538832278
:0B0F51003C4E4F20464C4F41543E00E8
:180EDA00AA82AB83120F0F6003A380F8C3E5829AF582E5839BF5832220
:1D0EF200E582855AF0A4C582C0F0855BF0A4D0F025F0C583855AF0A42583F58322CC
:0D000600758163120F2BE582600302000379
:1C0F0F0020F71430F6148883A88220F507E6A88375830022E280F7E49322E022F1
:040F2B0075820022A9
:1B0F2F0020F71130F6138883A88220F509F6A8837583002280FEF280F5F022C1
:00000001FF
