:03000000020006F5
:03005F0002000399
:03000300020118DF
:2000620012055F750A0B750B077582031200A1750A09750BFF7582031200A1750A0C750B8B
:20008200017582031200A1750A0F750B007582031200A1750A0A750B017582030200A1AF9F
:2000A200825390FD8F061FEE6012850A82C007120584850B82120584D00780E84390022272
:2000C200AF82740F5FFEEFC4540FFF5390FD1EC3EE9F4016758200C007C00612058475823E
:2000E20000120584D006D00780E4850C82C007120584850D82120584D0071FBF0100401226
:20010200758200C007120584758200120584D00780E843900222120062750C01750D0575CA
:2001220082131200C2750C02750D097582131200C2750C03750D097582131200C2750C04F6
:20014200750D017582131200C2750C05750DF37582131200C2750C06750D0075821312003E
:1B016200C2750C07750DF37582131200C2750C08750D017582131200C2809EDD
:20017D00AC82AD83AEF0FF43C40743C408EC4D4E4F602375C58375C6FF741055C4C4540F36
:20019D00FBBB01F553C4EF1CBCFF091DBDFF051EBEFF011F80D753C4F72285825A85835B8C
:2001BD0085F05CF55D900005E4F5F0120655AC82AD83AEF0C313FFEE13FEED13FDEC13FC6C
:2001DD00EFC313FFEE13FEED13FDEC13FC0CBC00090DBD00050EBE00010F1CBCFF091DBD11
:0E01FD00FF051EBEFF011FEC4D4E4F70ED22A0
:20020B00E493F58222E493FEA3E4938E82F58322AE82AF8353A87F75C7AA75C755439F0154
:20022B0043A88053A87F75C7AA75C75543A50143A88075AF218FA78EA6855AAE53A87F75D8
:20024B00C7AA75C75543A40143A88053A87F75C7AA75C75553A5FE43A88053A87F75C7AA8C
:20026B0075C755539FFE43A88022AE82AF8353A87F75C7AA75C755439F0143A88075AEFFA2
:20028B0075AF2253A87F75C7AA75C75543A50143A8808FA78EA653A87F75C7AA75C755432A
:2002AB00A40143A88053A87F75C7AA75C75553A5FE43A88053A87F75C7AA75C755539FFEF0
:0402CB0043A88022A2
:2002CF00900064E4F5F01201B7900045E02401F0E024F55004758201227582002243B30840
:2002EF0043B40843B31043B41075BE2743C04022AF82900023E4F0900024F043C02053C092
:20030F00F7900045E4F0740855C0C423541FFE700FC0071202CFE582D00760EA7582022279
:20032F00EF2FF5BC900045E4F053C0DF53C0F7740855C0C423541F700B1202CFE58260EF3B
:20034F007582032275820022AF82900023E0FE04F0EE2425F582E43400F583EFF0900023D3
:20036F00E0900024F022AD82AE83AFF07C00C3EC950E5029EC2DF9E43EFA8F0389828A83AA
:20038F008BF0120ED9F582C007C006C005C004120357D004D005D006D0070C80D1227F008D
:2003AF00900024E0FEC3EF9E5035EF2425F582E43400F583E0F5BC900045E4F053C0DF5309
:2003CF00C0F7740855C0C423541FFE700FC0071202CFE582D00760EA758201220F80C14310
:2003EF00C01043C008900045E4F0741055C0C4540FFFBF010B1202CFE58260EE758203222C
:20040F0075820022AF82900002E50FF0900001E4F043C02053C0F7900045E4F0740855C041
:20042F00C423541FFE700FC0071202CFE582D00760EA75820222EF2FFF74014FF5BC53C0E4
:20044F00DF53C0F7900045E4F0740855C0C423541F700B1202CFE58260EF758203227F0061
:20046F00900002E0FE7D001EBEFF011D8F037C00C3EB9EEC64808DF063F08095F0503543C0
:20048F00C00453C0F7900045E4F0740855C0C423541FFE700FC0071202CFE582D00760EA3C
:2004AF0075820422EF2403F582E43400F583E5BCF00F80AC53C0FB53C0F7900045E4F074F2
:2004CF000855C0C423541F700B1202CFE58260EF75820522900002E0FF1FEF3395E0FEEF50
:2004EF002403F582EE3400F583E5BCF043C01053C0F7900045E4F0741055C0C4540FFFBFE0
:20050F00010B1202CFE58260EE75820622758200227FFF900001E0FE900002E0FDC3EE9D46
:20052F005012EE2403F582E43400F583E0FF900001EE04F08F8222900002E0FF7E0090002A
:10054F0001E0FD7C00EFC39DFFEE9C8F82F58322BF
:010F260000CA
:20055F0043F40853F37F43F35353B3FE53B1FE43B10253B3FD43B40143B20143B20243B414
:16057F0002439002228582F500748055F423540160F753F47F227D
:20059500AF8253B1BF53B2BF53B17F53B27F8F8D759850438920438780438E1053C4DF43BE
:2005B500884043980222AF825398FD8F9974025598C31360F822AD82AE83AFF07C00EC2DD7
:2005D500F9E43EFA8F0389828A838BF0120ED96029EC2DF9E43EFA8F030C89828A838BF0EB
:2005F500120ED9F582C007C006C005C0041205BBD004D005D006D00780C4221205CB900F51
:200615001475F0800205CBAC82AD83AEF0FFC004C005C006C0077417C0E0740FC0E07480A7
:20063500C0E07410C0E07400C0E07440C0E0120770E58124F6F58190001075F0400205CBE3
:070F14000D0A00256C6900C5
:06003500E478FFF6D8FD9F
:200013007901E94400601B7A01900F26784575A000E493F2A308B8000205A0D9F4DAF27518
:02003300A0FF2C
:20065500AAF0FBE582855AF0A4FCADF0E583855AF0A42DFDE435F0FEE582855BF0A42DFD6C
:20067500E5F03EFEE433FFEA855AF0A42EFEE5F03FFFE583855BF0A42EFEE5F03FFFE58220
:20069500855CF0A42EFEE5F03FFFEB855AF0A42FFFEA855BF0A42FFFE583855CF0A42FFF6E
:0E06B500E582855DF0A42F8EF08D838C82226D
:20003B007800E84400600A790175A000E4F309D8FC7844E84400600C7901900001E4F0A37E
:04005B00D8FCD9FAFA
:2006C300C02B85812BC082058105810581E52B24FBF8A92B0909E6F708E609F708E609F761
:2006E300A82B080886820886830886F0120ED9FAA3120ED9FBA3120ED9FF74012AFCE43B9E
:20070300FD8F06A82B080886820886830886F0EC120EF9A3ED120EF9A3EE120EF98A828BDB
:20072300838FF0A82B08E6120EF9852B81D02B2285822885832985F02A753928753A007593
:200743003B4085243C85253D85263E85273F9006C3120856AE82AF83AB28AC29AD2A8B82C4
:200763008C838DF0E4120EF98E828F8322C02BE581F52B24F8FF8F3FE52B24FBFF8F3975E4
:200783003A00753B40E52B24F8F8863C08863D08863E9006C3120856AE82AF83E52B24FB55
:1A07A300F886030886040886058B828C838DF0E4120EF98E828F83D02B22C1
:2007BD00AF82C02FC030C0311207CA8007C02DC02E8F82221581158115810537E4B53702D3
:2007DD00053822AF8274302FFF24C6500B74072FFFE52C60034307208F820207BDE582FF91
:2007FD00C4540FF582C0071207E0D007740F5FF5820207E085825AAB32AC33AD34AE35AADA
:20081D0036755C208A07EF2FF55BEE235401455BFAEB2BFBEC33FCED33FDEE33FEC3EA95EB
:20083D005A4008EAC3955AFA430301D55CD68B328C338D348E358A362285822D85832E8544
:20085D00392F853A30853B31E4F537F538AD3CAE3DAF3E8D828E838FF0120ED9FC74012DFF
:20087D00F53CE43EF53D8F3EECFF7003020E9DBF25028003020E95E4F540F541F542F54332
:20089D00F544F545F546F547F549F556F557754AFF754BFF853C50853D51853E528550826F
:2008BD008551838552F0120ED9F553A385825085835185503C85513D85523E7425B5530885
:2008DD008553821207BD808574D025535068E55324C6406274FFB54A36B54B3385565A85F9
:2008FD00575B90000A120EBC858254858355AA537E00EA2554FAEE3555FEEA24D0F556EE96
:20091D0034FFF557E55645577093754101808E854A5A854B5B90000A120EBCAE82AB83AACA
:20093D00537D00EA2EFEED3BFBEE24D0F54AEB34FFF54B0208BA742EB5531574FFB54A0518
:20095D00B54B0280030208BAE4F54AF54B0208BA749F2553500EE553248540085353DF75FE
:20097D002C018003752C007420B55303020A20742BB55303020A1A742DB553028079744214
:20099D00B55303020A267443B55303020A327444B55303020BB67446B55303020BCD74481C
:2009BD00B553030208BA7449B55303020BB6744AB553030208BA744CB553028052744FB51F
:2009DD005303020BBE7450B55303020B4B7453B5530280627454B553030208BA7455B55397
:2009FD0003020BC37458B55303020BC8745AB553030208BA020BD27540010208BA754201AD
:200A1D000208BA7543010208BA7545010208BA7546010208BAE545600AE53F14F9893F8765
:200A3D0006800BE53F24FEFB8B3F8B0187068E821207BD020BE0E53F24FDFE8E3F8E0187EB
:200A5D000209870309870619198A328B338E348A828B838EF0120EA485825085835174FF61
:200A7D00B54A09B54B0685504A85514BE5407037C3E5509556E5519557502CE556C39550DB
:200A9D00F554E5579551F555AA54AE55155474FFB554021555EA4E60087582201207BD8025
:200ABD00E7855456855557AB4AAE4B8532828533838534F0120ED9FA8A4E6034C3E49B74B2
:200ADD00808EF063F08095F050261BBBFF011E854E82C006C0031207BDD003D006AA32AC54
:200AFD0033AD340ABA00010C8A328C338D3480BBE5407003020BE0C3E5509556E5519557F3
:200B1D004003020BE0E556C39550F554E5579551F555AA54AE55155474FFB554021555EAB4
:200B3D004E7003020BDA7582201207BD80E4E53F24FDFE8E3F8E0187020987030987061935
:200B5D00198A328B338E34AE34BE800040047B438014BE600040047B50800BBE4000400473
:200B7D007B4980027B588B82C0031207BD75823A1207BD7582301207BD7582781207BDD080
:200B9D0003BB4902800BBB500280068533821207FA8532821207FA802A75440175490A80CC
:200BBD0022754908801D75490A80187549108013754701800E8553821207BD8006855456A2
:200BDD00855557E5476060E53F24FCFE8E3F8E018756098757098758098759191919855682
:200BFD003285573385583485593575321B75330F75348085325685335785345874012556B4
:200C1D00FAE43557FBAE588A328B338E348556828557838558F0120ED9FEFB700302086AAE
:200C3D008B821207BD80CCE549700302086AE545602BE53F14F9893F87068E027B007D0090
:200C5D007E008A328B338D348E35E5447064AA32FBFDFE8A328B338D348E358055E54660CE
:200C7D0021E53F24FCFE8E3F8E0187020987030987050987061919198A328B338D348E3508
:200C9D008030E53F24FEFE8E3F8E01870309870619EEFA3395E0FDFE8B328A338D348E3525
:200CBD00E544700EAA32AB33FDFE8A328B338D348E35E5446023E53530E71BC3E49532FB5C
:200CDD00E49533FCE49534FDE49535FE8B328C338D348E35800375440075480179637D00A6
:200CFD007E00753600854982C006C005C001120811D001D005D006E5487014E536C454F097
:200D1D00FCE536C4540F4204E7FB4CF7198002A7360DBD00010EE548B40100E433F548E5A1
:200D3D003245334534453570B9894F8D4C8E4DE55645577005755601F557E541702DE540F8
:200D5D007029AA56AB57AC4C0C7E00C3EC9AEE9B5015758220C003C0021207BDD002D0030B
:200D7D001ABAFF011B80DF8A568B57E544601175822D1207BD155674FFB556021557802EAD
:200D9D00E54C454D6028E542601175822B1207BD155674FFB5560215578013E543600F7565
:200DBD0082201207BD155674FFB556021557E5407033AD56AE578D038E041DBDFF011EC39A
:200DDD00E54C9BE54D9C503EE54160067B307C0080047B207C008B82C006C0051207BDD042
:200DFD0005D00680D1C3E54C9556E54D9557500FE556C3954CF556E557954DF557800BE44B
:200E1D00F556F55780048D568E57A94FAD4CAE4D8D028E041DBDFF011EEA4C6030E548B426
:200E3D000100E433F548700A09E7C4540FFC8C3680078704740F5CF536853682C006C0050D
:200E5D00C0011207E0D001D005D00680C3E540700302086AAD56AE578D038E041DBDFF01EC
:200E7D001EEB4C700302086A758220C006C0051207BDD005D00680E08F821207BD02086A3B
:070E9D0085378285388322AE
:0B0F1B003C4E4F20464C4F41543E001E
:180EA400AA82AB83120ED96003A380F8C3E5829AF582E5839BF583228D
:1D0EBC00E582855AF0A4C582C0F0855BF0A4D0F025F0C583855AF0A42583F5832202
:0D000600758163120EF5E5826003020003B0
:1C0ED90020F71430F6148883A88220F507E6A88375830022E280F7E49322E02228
:040EF50075820022E0
:1B0EF90020F71130F6138883A88220F509F6A8837583002280FEF280F5F022F8
:00000001FF
