:03000000020006F5
:0300620002000396
:0300030002006593
:200065001203B575161E75172D751801751908751A02751B0F75820C12027C7582F7120266
:20008500D31200971201BF900258E4F5F01205CB80EF90107DE493F5821203C87582001218
:2000A500041D12046590107DE493FF90107EE493F5448F821204BC1205A4E582547FF582EF
:2000C5001201298582088583091205A412012985820A85830B1205A4E582543FF582120165
:2000E5002985820C85830D1205A41201298582108583111205A412012985820E85830F124E
:2001050005A41201298582128583131205A412012985821485831574D02514F5147407355C
:2001250015F51522AF827E007575108E768F828E83C007C00612102685827585837690004B
:200145000A12065FAC82AD83D006D0077575107576008F828E83C005C004120FF0AE82AF8E
:2001650083D004D005EE2CF582EF3DF58322AF827E0075750A8E768F828E83C007C006128F
:200185001026AC82AD83D006D007EDC454F0CCC4CC6CCC54F0CC6CFD75750A7576008F8227
:2001A5008E83C005C004120FF0AE82AF83D004D005EE2CF582EF3DF58322AC0CE50DFD3353
:2001C50095E0FE8C828D838EF0120363850A82850B8312023D85088285098312023D90100D
:2001E5007F75F080120310AC0EE50FFD3395E0FE8C828D838EF012036390107F75F08012F6
:200205000310AC12E513FD3395E0FE8C828D838EF012036390107F75F080120310AC14E58B
:2002250015FD3395E0FE8C828D838EF012036390108175F080020357AE82AF839010827592
:20024500F080C007C006120310D006D007C3EE940AEF64809480501190108475F080C00763
:20026500C006120310D006D007EF3395E0FD8E828F838DF0020363AF8290107DE493F5820A
:20028500C0071203C875820012041D85178212017312041D85168212017312041DD0078F78
:2002A5008212017312041D85188212017312041D85198212017312041D851A821201731294
:0E02C500041D851B8212017312041D020465C4
:09107D0068072000003A00300071
:2002D300AF8253B1BF53B2BF53B17F53B27F8F8D439840439810AE894306208E8943878029
:2002F300438E1053C4DF4388405398FD22AF825398FD8F9974025598C31360F822AD82AE2E
:2003130083AFF07C00EC2DF9E43EFA8F0389828A838BF0120FD4602B8C030CEB2DF9E43E8B
:20033300FA8F0389828A838BF0120FD4F582C007C006C005C004120300D004D005D006D0A5
:200353000780C22212031090108675F080020310AC82AD83AEF0FFC004C005C006C0077455
:2003730089C0E07410C0E07480C0E0741CC0E07400C0E07440C0E012080DE58124F6F581D4
:0903930090001C75F040020310FB
:071086000D0A00256C690052
:03005F00753000F9
:20039C00900064E4F5F012060B0530E53024F55004758201227582002243B30843B4084337
:2003BC00B31043B41075BE2743C04022AF82753A00753B0043C02053C0F775300074085565
:2003DC00C0C423541F700FC00712039CE582D00760EB75820222EF2FFF3395E0FE8FBC75C9
:2003FC00300053C0DF53C0F7740855C0C423541F700B12039CE58260EF75820322758200D5
:20041C0022AF82AE3A053AEE243CF8A607853A3B22AD82AE83AFF07C00C3EC95435029ECD0
:20043C002DF9E43EFA8F0389828A838BF0120FD4F582C007C006C005C00412041DD004D0E0
:20045C0005D006D0070C80D1227F00C3EF953B502CEF243CF987BC75300053C0DF53C0F7A6
:20047C00740855C0C423541FFE700FC00712039CE582D00760EA758201220F80CE43C0106E
:20049C0053C0F7753000741055C0C4540FFFBF010B12039CE58260EE75820322758200226C
:2004BC00AF8285443275310043C02053C0F7753000740855C0C423541F700FC00712039C9A
:2004DC00E582D00760EB75820222EF2FFF3395E0FE4307018FBC53C0DF53C0F775300074EE
:2004FC000855C0C423541F700B12039CE58260EF758203227F00AD327E001DBDFF011E8F08
:20051C00037C00C3EB9DEC64808EF063F08095F0502C43C00453C0F7753000740855C0C4C8
:20053C0023541FFE700FC00712039CE582D00760EA75820422EF2433F8A6BC0F80B853C075
:20055C00FB53C0F7753000740855C0C423541F700B12039CE58260EF75820522E532FF14C0
:20057C002433F8A6BC43C01053C0F7753000741055C0C4540FFFBF010B12039CE58260EEFC
:20059C0075820622758200227FFFC3E53195325009E5312433F9870705318F8222AE327FD4
:0F05BC0000AC317D00EEC39CF582EF9DF58322EC
:2005CB00AC82AD83AEF0FFAAC47B004302078AC443C408EC4D4E4F602375C58375C6FF74BF
:2005EB001055C4C4540FFBBB01F553C4EF1CBCFF091DBDFF051EBEFF011F80D753C4F722AE
:20060B0085827585837685F077F578900005E4F5F012067CAC82AD83AEF0C313FFEE13FEBA
:20062B00ED13FDEC13FCEFC313FFEE13FEED13FDEC13FC0CBC00090DBD00050EBE00010F80
:14064B001CBCFF091DBDFF051EBEFF011FEC4D4E4F70ED228D
:06003500E478FFF6D8FD9F
:200013007900E94400601B7A00901098780175A000E493F2A308B8000205A0D9F4DAF275EB
:02003300A0FF2C
:1D065F00E5828575F0A4C582C0F08576F0A4D0F025F0C5838575F0A42583F5832216
:20067C00AAF0FBE5828575F0A4FCADF0E5838575F0A42DFDE435F0FEE5828576F0A42DFDF4
:20069C00E5F03EFEE433FFEA8575F0A42EFEE5F03FFFE5838576F0A42EFEE5F03FFFE582C3
:2006BC008577F0A42EFEE5F03FFFEB8575F0A42FFFEA8576F0A42FFFE5838577F0A42FFFDB
:0E06DC00E5828578F0A42F8EF08D838C82222B
:2006EA00E575457660467A01E57525E0F575E576334012F576E5829575E583957640030A75
:20070A0080E6C3E57613F576E57513F575C3E5829575F5F0E58395764005F58385F082C3F3
:0D072A00E57613F576E57513F575DAE12235
:20003B007800E84400600A790175A000E4F309D8FC7800E84400600C7900900001E4F0A3C3
:04005B00D8FCD9FAFA
:200737007A10E4FBFCE58225E0F582E58333F583EB33FBEC33FCEB9575F5F0EC95764006FC
:09075700FCABF0438201DADD2263
:20076000C04C85814CC082058105810581E54C24FBF8A94C0909E6F70809E6F70809E6F73F
:20078000A84C080886820886830886F0120FD4FAA3120FD4FBA3120FD4FF74012AFCE43BEB
:2007A000FD8F06A84C080886820886830886F0EC121062A3ED121062A3EE1210628A828BDC
:2007C000838FF0A84C08E6121062854C81D04C2285824985834A85F04B755A49755B007562
:2007E0005C4085455D85465E85475F8548609007601208FFAE82AF83AB49AC4AAD4B8B8254
:200800008C838DF0E41210628E828F8322C04C85814CE54C24F8FF8F60E54C24FBFF8F5ACF
:20082000755B00755C40E54C24F8F8865D08865E08865F9007601208FFAE82AF83E54C240F
:1B084000FBF886030886040886058B828C838DF0E41210628E828F83D04C229B
:20085B00AF82C050C051C0521208688007C04EC04F8F82221581158115810558E4B55802AE
:20087B00055922AF8274302FFF24C6501174072FFFE54D60098F057E004305208D078F822C
:20089B0002085BE582FFC4540FF582C00712087ED007740F5FF58202087E858275AB53AC97
:2008BB0054AD55AE56AA577577208A07EF2FF576EE2354014576FAEB2BFBEC33FCED33FD38
:2008DB00EE33FEC3EA95754008EAC39575FA430301E57714FF8F7770D18B538C548D558E03
:2008FB00568A572285824E85834F855A50855B51855C52E4F558F559AD5DAE5EAF5F8D8293
:20091B008E838FF0120FD4FC74012DF55DE43EF55E8F5FECFF7003020FB5BF250280030255
:20093B000FAD7E007D008E618E627A007B008E637C008E648E6A7565FF855D6B855E6C85C0
:20095B005F6D856B82856C83856DF0120FD4F56EA385826B85836C856B5D856C5E856D5F1A
:20097B007425B56E08856E8212085B808B74D0256E5039E56E24C6403374FFB5651AE56A9D
:20099B00F56F75F00AA4F56FE56EF570256F24D0F56A70AE7D0180AAE56575F00AA4F5703A
:2009BB00E56EF56F257024D0F5658096742EB56E0A74FFB5658C7565008087749F256E50AD
:2009DB000EE56E24854008536EDF754D018003754D007420B56E03020A88742BB56E0302ED
:2009FB000A82742DB56E0280797442B56E03020A8E7443B56E03020A997444B56E03020CAD
:200A1B00AA7446B56E03020CC07448B56E0302095D7449B56E03020CAA744AB56E0302098F
:200A3B005D744CB56E028050744FB56E03020CB17450B56E03020BF57453B56E028076749F
:200A5B0054B56E0302095D7455B56E03020CB67458B56E03020CBB745AB56E0302095D02CD
:200A7B000CC47E0102095D75610102095D75620102095D7B0102095D75630102095DEB60B5
:200A9B000AE56014F989608770800DE56024FEF56F856F60A96F8770857082C006C005C082
:200ABB0004C003C00212085BD002D003D004D005D006020CE3E56024FDF570857060A970CF
:200ADB00876B09876C09876D1919856B53856C54856D55856B82856C83856DF0C006C005BC
:200AFB00C004C003C002120FBC85826B85836CD002D003D004D005D006856B7074FFB565BE
:200B1B0003857065EE7036C3E570956A502FE56AC39570F56F856F6B156FE56B601C758212
:200B3B0020C006C005C004C003C00212085BD002D003D004D005D00680DB856F6A85656FFB
:200B5B008553828554838555F0120FD4F56B856B676048856F6B156FC37480856BF063F0D9
:200B7B008095F05036856782C006C005C004C003C00212085BD002D003D004D005D006856F
:200B9B00536B85546C85556D056BE4B56B02056C856B53856C54856D5580A5EE7003020CA6
:200BBB00E3C3E570956A4003020CE3E56AC39570F57085706F1570E56F7003020CE07582DB
:200BDB0020C006C005C004C003C00212085BD002D003D004D005D00680D8E56024FDF56F4B
:200BFB00856F60A96F876B09876C09876D1919856B53856C54856D5585556874802568506F
:200C1B0005756F43801974A025685005756F50800E74C025685005756F498003756F5885B5
:200C3B006F82C006C005C004C003C00212085B75823A12085B75823012085B758278120894
:200C5B005BD002D003D004D005D0067449B56F0280217450B56F02801A855482C006C0050C
:200C7B00C004C003C00212089ED002D003D004D005D006855382C006C005C004C003C00206
:200C9B0012089ED002D003D004D005D00680397A0175640A8032756408802D75640A80287B
:200CBB0075641080237C01801F856E82C006C005C004C003C00212085BD002D003D004D06A
:200CDB0005D006800385706AEC6068E56024FCFC8C608C0187710987720987730987741994
:200CFB00191985715385725485735585745675538D7554107555808553718554728555731E
:200D1B0074012571F56BE43572F56C85736D856B53856C54856D558571828572838573F053
:200D3B00120FD4FC8C71700302091385718212085B80C4E5647003020913EB603FE560142B
:200D5B00F9896087048C71757200757300757400857153857254857355857456EA600302D7
:200D7B000E008553717572007573007574008571538572548573558574568069E563602563
:200D9B00E56024FCFC8C608C01877109877209877309877419191985715385725485735531
:200DBB008574568040E56024FEFC8C608C018703098704198B71ECF5723395E0F573F5742E
:200DDB00857153857254857355857456EA7016855371855472F573F57485715385725485DA
:200DFB007355857456EA602AE55630E723C3E49553F571E49554F572E49555F573E49556AA
:200E1B00F57485715385725485735585745680027A007C01797E7B00755700856482C00636
:200E3B00C005C004C003C002C0011208B5D001D002D003D004D005D006EC7010C003E55799
:200E5B00C4F571E74571F719D0038002A7570BECB40100E433FCE55345544555455670B860
:200E7B0089698B66E56A7003756A01ED702CEE7029856A71AB660BC3EB9571501A75822011
:200E9B00C006C005C004C00212085BD002D004D005D006157180DD85716AEA601675822D99
:200EBB00C006C005C00412085BD004D005D006156A8036E5666032E561601675822BC0061E
:200EDB00C005C00412085BD004D005D006156A8018E5626014758220C006C005C004120828
:200EFB005BD004D005D006156AEE7034AB6A8B021BC3E5669A503CED6008757130757200A9
:200F1B008006757120757200857182C006C005C004C00312085BD003D004D005D00680CEA4
:200F3B00C3E566956A5008E56AC39566FD80067D0080028B05A969AB668B021BEA6036ECDB
:200F5B00B40100E433FC700A09E7C4540FFA8A5780078702740F5AF557855782C006C00520
:200F7B00C004C003C00112087ED001D003D004D005D00680C4EE70030209138D068E051E4C
:200F9B00ED7003020913758220C00612085BD00680EB8F8212085B020913855882855983C1
:010FBB002213
:0B108D003C4E4F20464C4F41543E00AB
:180FBC00AA82AB83120FD46003A380F8C3E5829AF582E5839BF5832278
:0D00060075817E12105EE58260030200032A
:1C0FD40020F71430F6148883A88220F507E6A88375830022E280F7E49322E0222C
:200FF000C2D5E58330E70DD2D5E4C39582F582E49583F583E57630E70BE4C39575F575E4F2
:161010009576F5761206EA30D50BE4C39582F582E49583F5832277
:20102600C2D5E58330E70DD2D5E4C39582F582E49583F583E57630E70DB2D5E4C39575F58B
:1810460075E49576F57612073730D50BE4C39582F582E49583F5832298
:04105E007582002275
:1B10620020F71130F6138883A88220F509F6A8837583002280FEF280F5F0228D
:00000001FF
