:040000000200613267
:01000B0032C2
:0100130032BA
:01001B0032B2
:0100230032AA
:01002B0032A2
:01003300329A
:01003B003292
:01004300328A
:01004B003282
:01005300327A
:03005B0002012E71
:0300BA0002005EE3
:03005E000200BDE0
:2000BD0053E8F043E80743B30253B4FD75F60043F68043E1017582F712058343A88053E853
:2000DD007F43E840748055E823540160F7AEC3E4C454F0CEC4CE6ECE54F0CE6EFFACC27DB6
:2000FD0000EC4206ED42078E088F099001F4E4F5F012016BAC08AD097E007F008C828D83FA
:20011D008EF0EF12060D900F0575F0801205BC80ADC0E0C007C006C005C004C0D075D0001C
:20013D00AEC3E4C454F0CEC4CE6ECE54F0CE6EFFACC27D00EC4206ED42078E088F0953E86C
:0E015D007FD0D0D004D005D006D007D0E0323D
:030F05000D0A00D2
:20016B00AC82AD83AEF0FF43C40743C408EC4D4E4F602375C58375C6FF741055C4C4540F48
:20018B00FBBB01F553C4EF1CBCFF091DBDFF051EBEFF011F80D753C4F722858256858357A6
:2001AB0085F058F559900005E4F5F0120646AC82AD83AEF0C313FFEE13FEED13FDEC13FC95
:2001CB00EFC313FFEE13FEED13FDEC13FC0CBC00090DBD00050EBE00010F1CBCFF091DBD23
:0E01EB00FF051EBEFF011FEC4D4E4F70ED22B2
:2001F900E493F58222E493FEA3E4938E82F58322AE82AF8353A87F75C7AA75C755439F0167
:2002190043A88053A87F75C7AA75C75543A50143A88075AF218FA78EA68556AE53A87F75EE
:20023900C7AA75C75543A40143A88053A87F75C7AA75C75553A5FE43A88053A87F75C7AA9E
:2002590075C755539FFE43A88022AE82AF8353A87F75C7AA75C755439F0143A88075AEFFB4
:2002790075AF2253A87F75C7AA75C75543A50143A8808FA78EA653A87F75C7AA75C755433C
:20029900A40143A88053A87F75C7AA75C75553A5FE43A88053A87F75C7AA75C755539FFE02
:0402B90043A88022B4
:2002BD00900064E4F5F01201A5900045E02401F0E024F55004758201227582002243B30864
:2002DD0043B40843B31043B41075BE2743C04022AF82900023E4F0900024F043C02053C0A4
:2002FD00F7900045E4F0740855C0C423541FFE700FC0071202BDE582D00760EA758202229E
:20031D00EF2FF5BC900045E4F053C0DF53C0F7740855C0C423541F700B1202BDE58260EF5F
:20033D007582032275820022AF82900023E0FE04F0EE2425F582E43400F583EFF0900023E5
:20035D00E0900024F022AD82AE83AFF07C00C3EC950A5029EC2DF9E43EFA8F0389828A83C0
:20037D008BF0120ECAF582C007C006C005C004120345D004D005D006D0070C80D1227F00C0
:20039D00900024E0FEC3EF9E5035EF2425F582E43400F583E0F5BC900045E4F053C0DF531B
:2003BD00C0F7740855C0C423541FFE700FC0071202BDE582D00760EA758201220F80C14334
:2003DD00C01053C0F7900045E4F0741055C0C4540FFFBF010B1202BDE58260EE7582032251
:2003FD0075820022AF82900002E50BF0900001E4F043C02053C0F7900045E4F0740855C058
:20041D00C423541FFE700FC0071202BDE582D00760EA75820222EF2FFF74014FF5BC53C008
:20043D00DF53C0F7900045E4F0740855C0C423541F700B1202BDE58260EF758203227F0085
:20045D00900002E0FE7D001EBEFF011D8F037C00C3EB9EEC64808DF063F08095F0503543D2
:20047D00C00453C0F7900045E4F0740855C0C423541FFE700FC0071202BDE582D00760EA60
:20049D0075820422EF2403F582E43400F583E5BCF00F80AC53C0FB53C0F7900045E4F07404
:2004BD000855C0C423541F700B1202BDE58260EF75820522900002E0FF1FEF3395E0FEEF74
:2004DD002403F582EE3400F583E5BCF043C01053C0F7900045E4F0741055C0C4540FFFBFF2
:2004FD00010B1202BDE58260EE75820622758200227FFF900001E0FE900002E0FDC3EE9D6B
:20051D005012EE2403F582E43400F583E0FF900001EE04F08F8222900002E0FF7E0090003C
:10053D0001E0FD7C00EFC39DFFEE9C8F82F58322D1
:010F1A0000D6
:20054D0043F40853F37F43F35353B3FE53B1FE43B10253B3FD43B40143B20143B20243B426
:16056D0002439002228582F500748055F423540160F753F47F228F
:20058300AF8253B1BF53B2BF53B17F53B27F8F8D439840439810438920438780438E10530D
:2005A300C4DF4388405398FD22AF825398FD8F9974025598C31360F822AD82AE83AFF07C11
:2005C30000EC2DF9E43EFA8F0389828A838BF0120ECA6029EC2DF9E43EFA8F030C89828AF1
:2005E300838BF0120ECAF582C007C006C005C0041205ACD004D005D006D00780C4221205ED
:20060300BC900F0875F0800205BCAC82AD83AEF0FFC004C005C006C007740BC0E0740FC059
:20062300E07480C0E0740CC0E07400C0E07440C0E0120761E58124F6F58190000C75F0400A
:030643000205BCF1
:070F08000D0A00256C6900D1
:06009000E478FFF6D8FD44
:20006E007901E94400601B7A01900F1A784575A000E493F2A308B8000205A0D9F4DAF275C9
:02008E00A0FFD1
:20064600AAF0FBE5828556F0A4FCADF0E5838556F0A42DFDE435F0FEE5828557F0A42DFD87
:20066600E5F03EFEE433FFEA8556F0A42EFEE5F03FFFE5838557F0A42EFEE5F03FFFE58237
:200686008558F0A42EFEE5F03FFFEB8556F0A42FFFEA8557F0A42FFFE5838558F0A42FFF8D
:0E06A600E5828559F0A42F8EF08D838C822280
:200096007800E84400600A790175A000E4F309D8FC7844E84400600C7901900001E4F0A323
:0400B600D8FCD9FA9F
:2006B400C027858127C082058105810581E52724FBF8A9270909E6F708E609F708E609F780
:2006D400A827080886820886830886F0120ECAFAA3120ECAFBA3120ECAFF74012AFCE43BDE
:2006F400FD8F06A827080886820886830886F0EC120EEAA3ED120EEAA3EE120EEA8A828B1C
:20071400838FF0A82708E6120EEA852781D0272285822485832585F02675352475360075D5
:20073400374085203885213985223A85233B9006B4120847AE82AF83AB24AC25AD268B8221
:200754008C838DF0E4120EEA8E828F8322C027E581F52724F8FF8F3BE52724FBFF8F357516
:200774003600753740E52724F8F8863808863908863A9006B4120847AE82AF83E52724FB9E
:1A079400F886030886040886058B828C838DF0E4120EEA8E828F83D02722E3
:2007AE00AF82C02BC02CC02D1207BB8007C029C02A8F82221581158115810533E4B533020D
:2007CE00053422AF8274302FFF24C6500B74072FFFE52860034307208F820207AEE582FFB7
:2007EE00C4540FF582C0071207D1D007740F5FF5820207D1858256AB2EAC2FAD30AE31AA1B
:20080E00327558208A07EF2FF557EE2354014557FAEB2BFBEC33FCED33FDEE33FEC3EA950A
:20082E00564008EAC39556FA430301D558D68B2E8C2F8D308E318A322285822985832A857B
:20084E00352B85362C85372DE4F533F534AD38AE39AF3A8D828E838FF0120ECAFC74012D49
:20086E00F538E43EF5398F3AECFF7003020E8EBF25028003020E86E4F53CF53DF53EF53F7B
:20088E00F540F541F542F543F545F552F5537546FF7547FF85384C85394D853A4E854C82BE
:2008AE00854D83854EF0120ECAF54FA385824C85834D854C38854D39854E3A7425B54F08D3
:2008CE00854F821207AE808574D0254F5068E54F24C6406274FFB54636B547338552568533
:2008EE00535790000A120EAD858250858351AA4F7E00EA2550FAEE3551FEEA24D0F552EED4
:20090E0034FFF553E55245537093753D01808E85465685475790000A120EADAE82AB83AA08
:20092E004F7D00EA2EFEED3BFBEE24D0F546EB34FFF5470208AB742EB54F1574FFB546054A
:20094E00B5470280030208ABE4F546F5470208AB749F254F500EE54F24854008534FDF7543
:20096E00280180037528007420B54F03020A11742BB54F03020A0B742DB54F028079744255
:20098E00B54F03020A177443B54F03020A237444B54F03020BA77446B54F03020BBE744877
:2009AE00B54F030208AB7449B54F03020BA7744AB54F030208AB744CB54F028052744FB56B
:2009CE004F03020BAF7450B54F03020B3C7453B54F0280627454B54F030208AB7455B54FE7
:2009EE0003020BB47458B54F03020BB9745AB54F030208AB020BC3753C010208AB753E0117
:200A0E000208AB753F010208AB7541010208AB7542010208ABE541600AE53B14F9893B87C8
:200A2E0006800BE53B24FEFB8B3B8B0187068E821207AE020BD1E53B24FDFE8E3B8E018728
:200A4E000209870309870619198A2E8B2F8E308A828B838EF0120E9585824C85834D74FF93
:200A6E00B54609B54706854C46854D47E53C7037C3E54C9552E54D9553502CE552C3954C1E
:200A8E00F550E553954DF551AA50AE51155074FFB550021551EA4E60087582201207AE8067
:200AAE00E7855052855153AB46AE47852E82852F838530F0120ECAFA8A4A6034C3E49B74F8
:200ACE00808EF063F08095F050261BBBFF011E854A82C006C0031207AED003D006AA2EAC7A
:200AEE002FAD300ABA00010C8A2E8C2F8D3080BBE53C7003020BD1C3E54C9552E54D955339
:200B0E004003020BD1E552C3954CF550E553954DF551AA50AE51155074FFB550021551EAFE
:200B2E004E7003020BCB7582201207AE80E4E53B24FDFE8E3B8E018702098703098706196A
:200B4E00198A2E8B2F8E30AE30BE800040047B438014BE600040047B50800BBE4000400492
:200B6E007B4980027B588B82C0031207AE75823A1207AE7582301207AE7582781207AED0CB
:200B8E0003BB4902800BBB50028006852F821207EB852E821207EB802A75400175450A8009
:200BAE0022754508801D75450A80187545108013754301800E854F821207AE8006855052DC
:200BCE00855153E5436060E53B24FCFE8E3B8E0187520987530987540987551919198552B9
:200BEE002E85532F855430855531752E0F752F0F753080852E52852F538530547401255213
:200C0E00FAE43553FBAE548A2E8B2F8E308552828553838554F0120ECAFEFB700302085BFB
:200C2E008B821207AE80CCE545700302085BE541602BE53B14F9893B87068E027B007D00CD
:200C4E007E008A2E8B2F8D308E31E5407064AA2EFBFDFE8A2E8B2F8D308E318055E5426009
:200C6E0021E53B24FCFE8E3B8E0187020987030987050987061919198A2E8B2F8D308E312F
:200C8E008030E53B24FEFE8E3B8E01870309870619EEFA3395E0FDFE8B2E8A2F8D308E314C
:200CAE00E540700EAA2EAB2FFDFE8A2E8B2F8D308E31E5406023E53130E71BC3E4952EFB93
:200CCE00E4952FFCE49530FDE49531FE8B2E8C2F8D308E318003754000754401795F7D00DD
:200CEE007E00753200854582C006C005C001120802D001D005D006E5447014E532C454F0C5
:200D0E00FCE532C4540F4204E7FB4CF7198002A7320DBD00010EE544B40100E433F544E5C0
:200D2E002E452F4530453170B9894B8D488E49E55245537005755201F553E53D702DE53C3B
:200D4E007029AA52AB53AC480C7E00C3EC9AEE9B5015758220C003C0021207AED002D00335
:200D6E001ABAFF011B80DF8A528B53E540601175822D1207AE155274FFB552021553802EE3
:200D8E00E54845496028E53E601175822B1207AE155274FFB5520215538013E53F600F759F
:200DAE0082201207AE155274FFB552021553E53C7033AD52AE538D038E041DBDFF011EC3D0
:200DCE00E5489BE5499C503EE53D60067B307C0080047B207C008B82C006C0051207AED06C
:200DEE0005D00680D1C3E5489552E5499553500FE552C39548F552E5539549F553800BE482
:200E0E00F552F55380048D528E53A94BAD48AE498D028E041DBDFF011EEA4C6030E544B455
:200E2E000100E433F544700A09E7C4540FFC8C3280078704740F5CF532853282C006C0052C
:200E4E00C0011207D1D001D005D00680C3E53C700302085BAD52AE538D038E041DBDFF0125
:200E6E001EEB4C700302085B758220C006C0051207AED005D00680E08F821207AE02085B86
:070E8E0085338285348322C5
:0B0F0F003C4E4F20464C4F41543E002A
:180E9500AA82AB83120ECA6003A380F8C3E5829AF582E5839BF58322AB
:1D0EAD00E5828556F0A4C582C0F08557F0A4D0F025F0C5838556F0A42583F583221D
:0D00610075815F120EE6E582600302005E0D
:1C0ECA0020F71430F6148883A88220F507E6A88375830022E280F7E49322E02237
:040EE60075820022EF
:1B0EEA0020F71130F6138883A88220F509F6A8837583002280FEF280F5F02207
:00000001FF
